:040000000C94540008
:100004000C9400000C9400000C9400000C9400006C
:100014000C9400000C9400000C9400000C9400005C
:100024000C9400000C9400000C9400000C9400004C
:100034000C9400000C9400000C9400000C9400003C
:100044000C9400000C9400000C9400000C9400002C
:100054000C9400000C9400000C9400000C9400001C
:100064000C9400000C9484010C9400000C94000087
:100074000C9400000C9400001027E80364000A00AC
:1000840001000010000110000100416E616E6173F7
:100094000000070080C001000202960002000F0267
:1000A40098000000F894EE27EFBBF1E0F5BFE5BF40
:1000B4008DE0A2E0BB27ED938A95E9F780E094E018
:1000C400A0E0B1E0ED930197E9F7EAE9F0E085916A
:1000D4009591009761F0A591B59105901590BF0198
:1000E400F00105900D920197E1F7FB01F0CFE0E0FC
:1000F400EEBBEFEFEDBFE4E0EEBFC0E0D2E00C9466
:100104008300E0E8E0936100E0E0E0936100E1B99E
:10011400E2B9E4B9E5B9E7B9E8B9EAB9EBB9E4BDDC
:10012400E5BDE6BDE7BDE8BDE0938000E093810056
:10013400E0938500E0938400E0938700E0938600D9
:10014400E0938900E0938800E0938B00E0938A00B9
:10015400E093B600E093B000E093B100E093B20006
:10016400E093B300E093B400E0936E00E0936F007B
:10017400E0937000E0936900EDBBE0936800E093C6
:10018400C100E093C900E0E8E0BFE0E0E0937F0055
:10019400E0937E00E0937C00E3E8E0937A00E0E003
:1001A400E0937B00ECBDA4E6B0E01BD07894E7E2DA
:1001B400EA93A0E17FD2EEE8F0E0FA93EA9380E0DC
:1001C40003D42296EAB1EC60EAB9EBB1EC60EBB986
:1001D400E4B1E06CE4B9E0E0E5B902D0FECFFFCFD2
:1001E40008955DD49D01F19AE7E0E0930202E0E016
:1001F400E0930B02E0930C02E0930D02E0930E02F5
:1002040041984098E093BC00E091B900EC7FE09302
:10021400B900F901A0EABFE052D41E2F183008F04B
:1002240018501093B800E091BC00E078E564E093C6
:10023400BC003CD42496089524972FD41A2F2A85E1
:100244003B850C854D855E85F19B58C0EF85EE0F8F
:10025400E09303024093040250930502E0E0E0932C
:100264000002009306022093070230930802E093F1
:10027400010210930902E6E0E09302027894003050
:1002840069F0042E052AD1F1103021F00024021661
:10029400030609F001C032C0F09A0BC0103031F1EE
:1002A400022E032A59F1E0910302E160E093030274
:1002B400F098F198E091BC00EF70E06AE093BC0024
:1002C400E0E2F1EA67E070E0A6D3F1990FC0EE81B5
:1002D400FF81688579853197604070409CD329F40B
:1002E400E5E0E0930202F19A09C0EFCFA091020287
:1002F400E0E0EA17E1E009F0EE2701C0E0E0D4D342
:10030400609608950A921A92FA926A937A938A935B
:100314009A93AA93BA93EA93FA93EFB7EA935A9308
:100324004A933A932A931A930A93109101020091E3
:1003340000023091060220910202E12FA0910702EF
:10034400B0910802F0E0EA0FFB1FAF01E091B900A1
:10035400E87FE83011F420E002C0E03119F4E091C4
:10036400030210C0E83111F0E83241F5031798F4A4
:10037400E02F0F5FA0910402B0910502F0E0AE0FF0
:10038400BF1FEC91E093BB00E091BC00EF70E0680C
:10039400E093BC0012C0E09109021E1768F4E091DA
:1003A4000302E160E0930302F098E091BC00EF7077
:1003B400E06AE093BC000DC138C00BC1E03531F4F4
:1003C400E091BB00DA01EC931F5F02C0E03489F4D2
:1003D400E0910902E1501E1728F0E091BC00EF7093
:1003E400E06804C0E091BC00EF70E06CE093BC00F6
:1003F400F0C0E83531F4E091BB00DA01EC931F5F03
:1004040002C0E03209F402C0E03309F402C0E83467
:1004140069F4203051F4F09B03C0031728F005C0A1
:10042400E09109021E1708F424E0CCC0E83331F44B
:1004340022E0E091BC00EF70E068C8C0E83611F03B
:10044400E83711F422E005C0E03611F0E037A1F4FA
:1004540020E010E0F098E0910A02E03031F421E06D
:10046400E091BC00EF70E06804C0E091BC00EF7064
:10047400E06CE093BC00ADC0E03811F0E03939F530
:10048400F09B02C021E09EC0E091BB00DA01EC9336
:100494001F5FE0910A021E17C0F4E0910B02F09175
:1004A4000C02309711F426E08DC0A0E0E0910B021D
:1004B400F0910C020995E03039F0E091BC00EF7046
:1004C400E06CE093BC0085C001C0F09A02C0E8383B
:1004D40009F402C0E83939F4E091BC00EF70E06837
:1004E400E093BC0076C0E03AB1F4E091BC00EF7058
:1004F400E06CE093BC00F19AE0910B02F0910C02E5
:10050400309739F0A1E0E0910B02F0910C020995CB
:1005140001C026E05EC0E03B11F422E002C0E83AEC
:10052400B1F4E0910D02F0910E02309759F0A0E081
:10053400E0910D02F0910E0209953E2FE03011F08A
:1005440020E002C026E03EC000E0F09802C0E83B94
:10055400F9F4F09B02C021E035C0E02F0F5FA091B9
:100564000402B0910502F0E0AE0FBF1FEC91E093DE
:10057400BB00031728F4E091BC00EF70E06C05C0E9
:10058400F09AE091BC00EF70E068E093BC0021C0F9
:10059400E03C11F0E83C99F4E091BC00EF70E06CB1
:1005A400E093BC00E0910D02F0910E02309731F01F
:1005B400A1E0E0910D02F0910E02099509C0E0302E
:1005C40041F423E0E091BC00EF70E06DE093BC00E7
:1005D400F19A1093010200930002209302023093D7
:1005E4000602099119912991399149915991E991F9
:1005F400EFBFF991E991B991A99199918991799173
:100604006991F9901990099018950AD2A091140251
:100614000ED24EC005D2E095A0911402EA230CD26A
:1006240047C01A931A2FE0911302EA93E09114023F
:10063400EF70AE2FE12FE07FFAD1A4E0E6DFA4E073
:1006440036C0AA93A881EDDFE881E295E883A8810A
:10065400E8DF85E88A95F1F721960895F1D1E12F35
:10066400F0E0E15FFD4FE081E00FAE2FEADF402EC6
:10067400312E46C0A2E0E9D1ACE0E3DFA1E0E5D150
:10068400E0E03E2E4E2E08951A931A2F1A3011F0E0
:10069400461438F0E0E0EA933394A32DDFDF1A30F8
:1006A40039F04394A1E0B1DFA12FCBDFA1E0B2DFA9
:1006B40019910895C5D100931302E0911302EA93AE
:1006C400E8E0BAD1612EE12FE058E0931102E12F66
:1006D400E054E0931202A4E1B0E008D2BAD1B9D157
:1006E400B8D1A0E29EDF88EC90E00197F1F7A8E290
:1006F400A8DFA4E0A6DFA5E8A4DFA6E0A2DFBADFB6
:100704001981088123960895BA93AA93A991B9915E
:10071400EE27FF276D91662311F03196FBCF0895E4
:10072400BA93AA93AA27BB27E991F99105900020CF
:1007340011F01196FBCFFD010895AA93E981EA9384
:10074400FE013196FA93EA93E1E0EA93E0E0F0E007
:10075400FA93EA93A0E070DD22960895BA93AA93DF
:1007640026979BD110E0AC85BD85E0E0F0E0ED93E9
:10077400FC93EA89FB893196EA8BFB8B3197E491F0
:100784002E2FE03009F40BC1E12FE03031F4253293
:1007940011F411E001C064D101C1E130A1F42532AA
:1007A40011F45ED1FAC012E040E000E02D3211F401
:1007B40001E0F4C02B3211F44BE2F0C0203211F40A
:1007C40040E2ECC002C0E23039F450E013E02033E0
:1007D40011F40068E3C003C0E33009F0DFC0203344
:1007E40010F02A3308F007C0AAE05A9F502DE22FD8
:1007F400E0535E0FD3C0E22FE33639F438D1E889F1
:10080400F989A481AA9339D1C8C0E33729F42FD137
:100814003AD17ADF1E2F07C0E03749F428D133D10B
:100824007FDF1E2F086002600F7730E03AC0E436A5
:1008340011F0E93611F4046002C0E53731F4ECE755
:10084400F0E0EE83FF8315E00CC0E83511F4086096
:1008540003C0E83709F0A1C0E6E8F0E0EE83FF83C7
:1008640014E002FF15C003D1A889B9891496ED914B
:10087400FD91EA87FB87AB85AA2322F41CD1EA8782
:10088400FB874DE2403011F01F5F01C00B7F09C0B0
:10089400EED0A889B9891496ED91FC911197EA8755
:1008A400FB8700FD10C0151770F407FF08C002FF96
:1008B40004C00B7F242F115001C020E301C020E2AB
:1008C400CFD05150F0CF312F01FF16C0303099F006
:1008D40003FF06C0EE81FF812591EE83FF8305C0EF
:1008E400AE81BF812D91AE83BF83BAD0503009F061
:1008F40051503150EBCF48C020E3EE81FF81F2D05C
:10090400E887F987EE81FF813296EE83FF83E885DD
:10091400F985AA85BB85AE17BF0750F02F5FA88560
:10092400B985EA85FB85EA1BFB0BEA87FB87EFCFDA
:100934002A3328F003FF02C0295F01C0295D04FDAA
:1009440019C0213320F4A885B985119709F409C089
:10095400531710F000FF01C011C020E207FF0AC0C6
:1009640020E3006102FF06C00B7F4A9386D050301B
:1009740009F0515075D0503009F051503150A885CC
:10098400B985129708F0B8CF00FF07C0503029F09E
:100994005150E0E2EA9371D0F9CF10E0EACEAC8591
:1009A400BD85ED91FD9180D06496089578D08D0138
:1009B4003C81A32F69DED801ED91FD913196FE9320
:1009C400EE9374D025960895FF92F82E26971A93E5
:1009D4000A93DE0114960024AF0DB01D8D01E0E0F2
:1009E400EC83ED83EE83EF83DE0118960024AF0DD4
:1009F400B01DED91FD91FA93EA931A930A93E8EDF1
:100A0400F4E0FA93EA93DE011896A8DE19810881CE
:100A14002896FF900895EE83FF8368877987089569
:100A24001A931A2FE0911302EA93E12F0895EA2B07
:100A3400E0931402AE2F81CEE0931402AE2F7DCE4C
:100A44001A930A931A2F0A810895FBDDA3E0B0E0FC
:100A54004DC0A0E3E6DD88EC90E00197F1F708953E
:100A64002A93AD85BE85EF85F88909950895E889AF
:100A7400F9893497E88BF98B0895AD85BE85EF85A8
:100A8400F88909950895A889B9891496ED91FD917D
:100A9400EE83FF83AE81BF8108955A934A933A93BC
:100AA4002A931A930A9308955D814C813B812A818C
:100AB400198108810895F195E195F0400895002485
:100AC400112490E1AA0FBB1F001C111C0E1A1F0A4F
:100AD40018F40E0E1F1E01C0A1609A9599F7FD012E
:100AE400D00108950590F491E02D0895109639F001
:100AF400A89580ED97E00197F1F71197C9F708954C
:00000001FF
