:100000000C945B000C9400000C9400000C94000015
:100010000C9400000C9400000C9400000C94000060
:100020000C9400000C9400000C9400000C94000050
:100030000C9400000C9400000C9400000C94000040
:100040000C9400000C9400000C9400000C94000030
:100050000C9400000C9400000C9400000C94000020
:100060000C9400000C9400000C9440020C940000CE
:100070000C9400000C9400000C9400001027E8037E
:1000800064000A0001000010000110000100257545
:100090000000070080C001002D4E414E00494E4631
:1000A000000001000202920002000F029400010011
:1000B000150296000000F894EE27EFBBF1E0F5BFC3
:1000C000E5BF8DE0A2E0BB27ED938A95E9F780E0DC
:1000D00094E0A0E0B1E0ED930197E9F7E2EAF0E007
:1000E00085919591009761F0A591B5910590159036
:1000F000BF01F00105900D920197E1F7FB01F0CFF0
:10010000E0E0EEBBEFEFEDBFE4E0EEBFC0E0D2E039
:100110000C945B0153D0E2E0EA93A0E06DD0E1E003
:10012000EA93A0E069D0BFD02497A1E0A1D0E883F2
:10013000F983EEE8F0E0FA93EA93EA81FB8166271F
:100140007727CFD584E0FED42696A8EBBBE0CED5AA
:100150004FD32496E9CF9ED5E0917C00E16019D57C
:10016000E0917A00E070E1F71FD50C94D70192D5A9
:10017000E0917C00E2600DD5E0917A00E070E1F75B
:1001800013D50C94D701E0917C00E07E02D5E0917C
:100190007A00E070E1F7E0917A00E061E0937A00A4
:1001A000E0917800F091790008952197E0917C002A
:1001B000E883E0E00BD50ED50C94EA032197E0E04C
:1001C000E1B9EAB10DD5E860E883E061E883E06277
:1001D000E883EAB9EBB104D5E460E883EBB9E4B1B4
:1001E000F5D4E068E883E4B9E5B1F0D4E068E883E9
:1001F000E5B9DBDF0C94EA0321971A930A931A2FCF
:100200000B81E02FF0E0309741F4EED4EE0FEE0FCB
:100210000E2EEA81EB7FEDD427C0E130A0E0FA0793
:1002200049F4E2D4EE0FEE0FEE0F0E2EEA81E77FD7
:10023000E0D41AC0E230A0E0FA0751F4DED4E2952F
:10024000E07FEE0FEE0F0E2EEA81EF7BDBD40CC0C9
:10025000E330A0E0FA0741F4D0D4E795E0E0E79579
:100260000E2EEA81EF77CED4198108810C94D80143
:100270001A931A2FE12FF0E0E130A0E0FA0719F409
:100280006ADF0C941604E230A0E0FA0719F46FDF7D
:100290000C941604309719F476DF0C941604E0E001
:1002A000F0E00C941604A4E6B0E059D0E7E2EA933B
:1002B000A0E1BED20895E0E8E0936100E0E0E093C1
:1002C0006100E1B9E2B9E4B9E5B9E7B9E8B9EAB979
:1002D000EBB9E4BDE5BDE6BDE7BDE8BDE093800058
:1002E000E0938100E0938500E0938400E093870031
:1002F000E0938600E0938900E0938800E0938B0010
:10030000E0938A00E093B600E093B000E093B10080
:10031000E093B200E093B300E093B400E0936E008A
:10032000E0936F00E0937000E0936900EDBBE09311
:100330006800E093C100E093C900E0E8E0BFE0E0BE
:10034000E0937F00E0937E0045D4E0E0E0937B0003
:10035000ECBDA4E6B0E003D07894DCDEFFCF9AD405
:100360009D01F19AE7E0E0930202E0E0E0930B02E6
:10037000E0930C02E0930D02E0930E024198409846
:10038000E093BC00E091B900EC7FE093B900F90183
:10039000A0EABFE08FD41E2F183008F01850109339
:1003A000B800E091BC00E078E564E093BC0079D44B
:1003B0002496089524976CD41A2F2A853B850C85A2
:1003C0004D855E85F19B58C0EF85EE0FE0930302EB
:1003D0004093040250930502E0E0E0930002009392
:1003E00006022093070230930802E0930102109363
:1003F0000902E6E0E09302027894003069F0042EEE
:10040000052AD1F1103021F000240216030609F06C
:1004100001C032C0F09A0BC0103031F1022E032A15
:1004200059F1E0910302E160E0930302F098F19842
:10043000E091BC00EF70E06AE093BC00E0E2F1EA1A
:1004400067E070E0E3D3F1990FC0EE81FF8168852A
:100450007985319760407040D9D329F4E5E0E09385
:100460000202F19A09C0EFCFA0910202E0E0EA1780
:10047000E1E009F0EE2701C0E0E011D460960895B4
:100480000A921A92FA926A937A938A939A93AA9307
:10049000BA93EA93FA93EFB7EA935A934A933A934B
:1004A0002A931A930A93109101020091000230914D
:1004B000060220910202E12FA0910702B0910802EA
:1004C000F0E0EA0FFB1FAF01E091B900E87FE830F0
:1004D00011F420E002C0E03119F4E091030210C0F1
:1004E000E83111F0E83241F5031798F4E02F0F5F7F
:1004F000A0910402B0910502F0E0AE0FBF1FEC9195
:10050000E093BB00E091BC00EF70E068E093BC00BA
:1005100012C0E09109021E1768F4E0910302E16045
:10052000E0930302F098E091BC00EF70E06AE09382
:10053000BC000DC138C00BC1E03531F4E091BB0007
:10054000DA01EC931F5F02C0E03489F4E091090204
:10055000E1501E1728F0E091BC00EF70E06804C085
:10056000E091BC00EF70E06CE093BC00F0C0E835B7
:1005700031F4E091BB00DA01EC931F5F02C0E0327E
:1005800009F402C0E03309F402C0E83469F4203011
:1005900051F4F09B03C0031728F005C0E091090255
:1005A0001E1708F424E0CCC0E83331F422E0E091D7
:1005B000BC00EF70E068C8C0E83611F0E83711F40D
:1005C00022E005C0E03611F0E037A1F420E010E0B1
:1005D000F098E0910A02E03031F421E0E091BC00B3
:1005E000EF70E06804C0E091BC00EF70E06CE09355
:1005F000BC00ADC0E03811F0E03939F5F09B02C025
:1006000021E09EC0E091BB00DA01EC931F5FE09116
:100610000A021E17C0F4E0910B02F0910C02309711
:1006200011F426E08DC0A0E0E0910B02F0910C02E5
:100630000995E03039F0E091BC00EF70E06CE09398
:10064000BC0085C001C0F09A02C0E83809F402C0BD
:10065000E83939F4E091BC00EF70E068E093BC0049
:1006600076C0E03AB1F4E091BC00EF70E06CE0934A
:10067000BC00F19AE0910B02F0910C02309739F036
:10068000A1E0E0910B02F0910C02099501C026E077
:100690005EC0E03B11F422E002C0E83AB1F4E09120
:1006A0000D02F0910E02309759F0A0E0E0910D029A
:1006B000F0910E0209953E2FE03011F020E002C0CB
:1006C00026E03EC000E0F09802C0E83BF9F4F09B61
:1006D00002C021E035C0E02F0F5FA0910402B0916D
:1006E0000502F0E0AE0FBF1FEC91E093BB000317D3
:1006F00028F4E091BC00EF70E06C05C0F09AE09146
:10070000BC00EF70E068E093BC0021C0E03C11F059
:10071000E83C99F4E091BC00EF70E06CE093BC0021
:10072000E0910D02F0910E02309731F0A1E0E091DE
:100730000D02F0910E02099509C0E03041F423E06A
:10074000E091BC00EF70E06DE093BC00F19A109373
:1007500001020093000220930202309306020991E5
:1007600019912991399149915991E991EFBFF991E5
:10077000E991B991A9919991899179916991F990AA
:1007800019900990189547D2A09114024BD24EC0EF
:1007900042D2E095A0911402EA2349D247C01A93AD
:1007A0001A2FE0911302EA93E0911402EF70AE2F3A
:1007B000E12FE07F37D2A4E0E6DFA4E036C0AA93C1
:1007C000A881EDDFE881E295E883A881E8DF85E88C
:1007D0008A95F1F7219608952ED2E12FF0E0E15F9E
:1007E000FD4FE081E00FAE2FEADF402E312E46C0F4
:1007F000A2E026D2ACE0E3DFA1E022D2E0E03E2E90
:100800004E2E08951A931A2F1A3011F0461438F00C
:10081000E0E0EA933394A32DDFDF1A3039F04394FC
:10082000A1E0B1DFA12FCBDFA1E0B2DF19910895E4
:1008300002D200931302E0911302EA93E8E0F7D1A9
:10084000612EE12FE058E0931102E12FE054E09394
:100850001202A4E1B0E04AD2F7D1F6D1F5D1A0E27C
:100860009EDF88EC90E00197F1F7A8E2A8DFA4E012
:10087000A6DFA5E8A4DFA6E0A2DFBADF1981088120
:1008800023960895BA93AA93A991B991EE27FF27C9
:100890006D91662311F03196FBCF0895BA93AA9318
:1008A000AA27BB27E991F9910590002011F0119634
:1008B000FBCFFD010895AA93E981EA93FE013196E9
:1008C000FA93EA93E1E0EA93E0E0F0E0FA93EA9346
:1008D000A0E070DD22960895BA93AA932697D8D106
:1008E00010E0AC85BD85E0E0F0E0ED93FC93EA8993
:1008F000FB893196EA8BFB8B3197E4912E2FE03008
:1009000009F40BC1E12FE03031F4253211F411E08C
:1009100001C0A1D101C1E130A1F4253211F49BD174
:10092000FAC012E040E000E02D3211F401E0F4C022
:100930002B3211F44BE2F0C0203211F440E2ECC053
:1009400002C0E23039F450E013E0203311F40068C3
:10095000E3C003C0E33009F0DFC0203310F02A33D6
:1009600008F007C0AAE05A9F502DE22FE0535E0F17
:10097000D3C0E22FE33639F475D1E889F989A4812F
:10098000AA9376D1C8C0E33729F46CD177D17ADF46
:100990001E2F07C0E03749F465D170D17FDF1E2FCD
:1009A000086002600F7730E03AC0E43611F0E936B3
:1009B00011F4046002C0E53731F4ECE7F0E0EE83B7
:1009C000FF8315E00CC0E83511F4086003C0E83778
:1009D00009F0A1C0E6E8F0E0EE83FF8314E002FF37
:1009E00015C040D1A889B9891496ED91FD91EA8787
:1009F000FB87AB85AA2322F459D1EA87FB874DE216
:100A0000403011F01F5F01C00B7F09C02BD1A889B6
:100A1000B9891496ED91FC911197EA87FB8700FD47
:100A200010C0151770F407FF08C002FF04C00B7F49
:100A3000242F115001C020E301C020E20CD15150FD
:100A4000F0CF312F01FF16C0303099F003FF06C000
:100A5000EE81FF812591EE83FF8305C0AE81BF81CA
:100A60002D91AE83BF83F7D0503009F051503150F3
:100A7000EBCF48C020E3EE81FF812FD1E887F987D3
:100A8000EE81FF813296EE83FF83E885F985AA85A2
:100A9000BB85AE17BF0750F02F5FA885B985EA85E3
:100AA000FB85EA1BFB0BEA87FB87EFCF2A3328F095
:100AB00003FF02C0295F01C0295D04FD19C0213375
:100AC00020F4A885B985119709F409C0531710F0CF
:100AD00000FF01C011C020E207FF0AC020E300614F
:100AE00002FF06C00B7F4A93C3D0503009F051502B
:100AF000B2D0503009F051503150A885B9851297C5
:100B000008F0B8CF00FF07C0503029F05150E0E2A4
:100B1000EA93AED0F9CF10E0EACEAC85BD85ED9179
:100B2000FD91BDD064960895B5D08D013C81A32F71
:100B300069DED801ED91FD913196FE93EE93B1D02F
:100B400025960895FF92F82E26971A930A93DE01B0
:100B500014960024AF0DB01D8D01E0E0EC83ED8311
:100B6000EE83EF83DE0118960024AF0DB01DED91EA
:100B7000FD91FA93EA931A930A93E4E9F5E0FA9364
:100B8000EA93DE011896A8DE198108812896FF9065
:100B90000895E0937C008BE18A95F1F7E0917A006B
:100BA000E064E0937A000895E0917A00E061E093D8
:100BB0007A002091780030917900F32FE0E0DF0196
:100BC000E22FF0E0EA2BFB2B8F010895E883E0642D
:100BD000E8830895E0937C00E3E8E0937A000895C9
:100BE000E883E460E8830895EBB1EA83E12FE170E4
:100BF0000895E029EA83EBB90895E5B1EA83E12F8E
:100C0000E1700895E029EA83E5B90895EE83FF8352
:100C10006887798708951A931A2FE0911302EA934F
:100C2000E12F0895EA2BE0931402AE2F44CEE09317
:100C30001402AE2F40CE1A930A931A2F0A810895F8
:100C4000BEDDA3E0B0E052C0A0E3A9DD88EC90E0F7
:100C50000197F1F708952A93AD85BE85EF85F88950
:100C600009950895E889F9893497E88BF98B0895F7
:100C7000AD85BE85EF85F88909950895A889B9895C
:100C80001496ED91FD91EE83FF83AE81BF810895AF
:100C90005A934A933A932A931A930A9308955D813B
:100CA0004C813B812A81198108810895F195E19554
:100CB000F04008950024112490E1AA0FBB1F001CEE
:100CC000111C0E1A1F0A18F40E0E1F1E01C0A1607F
:100CD0009A9599F7FD01D00108950590F491E02DC2
:100CE00008957A936A93FA93EA930895109639F0E7
:100CF000A89580ED97E00197F1F71197C9F708954E
:00000001FF
