:040000000C946100FB
:100004000C9400000C9400000C9400000C9400006C
:100014000C9400000C9400000C9400000C9400005C
:100024000C9400000C9400000C9400000C9400004C
:100034000C9400000C9400000C9400000C9400003C
:100044000C9400000C9400000C9400000C9400002C
:100054000C9400000C9400000C9400000C9400001C
:100064000C9400000C94A7020C9400000C94000063
:100074000C9400000C9400001027E80364000A00AC
:100084000100001000011000010054454D503A20B9
:1000940000000000000000000000070080C0010014
:1000A4002D4E414E00494E460000010002029E00C2
:1000B40002000F02A00001001502A2000000F89443
:1000C400EE27EFBBF1E0F5BFE5BF8DE0A2E0BB2773
:1000D400ED938A95E9F780E094E0A0E0B1E0ED9338
:1000E4000197E9F7EEEAF0E085919591009761F0C8
:1000F400A591B59105901590BF01F00105900D9261
:100104000197E1F7FB01F0CFE0E0EEBBEFEFEDBFCD
:10011400E4E0EEBFC0E0D2E00C9431011A930A93FC
:1001240000E010E0F801099119910895E0917C0034
:10013400E17EE0937C008BE18A95F1F7E0917A000F
:10014400E064E0937A00E0917A00E070E1F7E091F6
:100154007A00E061E0937A00E0917800F091790010
:1001640008952197E0917C00E883E0E010D413D453
:100174000C9451042197E0E0E1B9EAB112D4E860AB
:10018400E883E061E883E062E883EAB9EBB109D48B
:10019400E460E883EBB9E4B1FAD3E068E883E4B956
:1001A400E5B1F5D3E068E883E5B9DBDF0C945104ED
:1001B40021971A930A931A2F0B81E02FF0E03097BE
:1001C40041F4F3D3EE0FEE0F0E2EEA81EB7FF2D360
:1001D40027C0E130A0E0FA0749F4E7D3EE0FEE0FB1
:1001E400EE0F0E2EEA81E77FE5D31AC0E230A0E0DD
:1001F400FA0751F4E3D3E295E07FEE0FEE0F0E2EF3
:10020400EA81EF7BE0D30CC0E330A0E0FA0741F4CD
:10021400D5D3E795E0E0E7950E2EEA81EF77D3D3C7
:10022400198108810C948C041A931A2FE12FF0E0A1
:10023400E130A0E0FA0719F471DF0C947D04E23098
:10024400A0E0FA0719F46ADF0C947D04309719F4DE
:100254006DDF0C947D04E0E0F0E00C947D04E0E8B4
:10026400E0936100E0E0E0936100E1B9E2B9E4B950
:10027400E5B9E7B9E8B9EAB9EBB9E4BDE5BDE6BD6E
:10028400E7BDE8BDE0938000E0938100E093850042
:10029400E0938400E0938700E0938600E093890074
:1002A400E0938800E0938B00E0938A00E093B6002B
:1002B400E093B000E093B100E093B200E093B300A8
:1002C400E093B400E0936E00E0936F00E09370005D
:1002D400E0936900EDBBE0936800E093C100E09314
:1002E400C900E0E8E0BFE0E0E0937F00E0937E0037
:1002F40052D3E0E0E0937B00ECBDA4E6B0E095D0FF
:100304007894E7E2EA93A0E107D301D0FFCF32DF8C
:10031400E2E0EA93A0E04CDFE1E0EA93A0E048DF0A
:10032400A39780E160E070E0EEE8F0E0A8D3C5D2E6
:10033400A0E07ADF66277727EB8BFC8B6D8B7E8BB7
:1003440046D330976040704081F041D3AFEFB3E0C3
:1003540080E090E0D3D3E150F04060407040A8EEDC
:10036400B3E080E090E097D304C0E5EEF7E568E001
:1003740070E0EF8BF88F698F7A8F2ED3E1E0F0E095
:1003840060E070E02ED3E0E0EA8BE6E0E98BEB8DF1
:10039400FC8D6D8D7E8D309760407040F9F0EF8D4F
:1003A400F8A169A17AA1AAE0B0E080E090E073D35B
:1003B4007F936F93FF93EF9319D3C4D3AF91BF91FE
:1003C4008F919F91EA0FFB1F681F791F0AD3EA8957
:1003D400EF5FEA8B0BD392D3FFD2D9CFE0E0E88B67
:1003E400EA89A889AE17A8F40AD3EA0FFB1FFF9382
:1003F400EF9309D3A7D3E05DAF91BF91EC9303D3FF
:100404007DD3EFD2E989EF5FE98BE889EF5FE88B71
:10041400E7CFF5D2AE0FBF1FE0E0EC93DE016DD263
:10042400A8EEB3E093D3A3967BCF1DD39D01F19A9D
:10043400E7E0E0930202E0E0E0930B02E0930C02B9
:10044400E0930D02E0930E0241984098E093BC00C3
:10045400E091B900EC7FE093B900F901A0EABFE0B4
:100464003AD31E2F183008F018501093B800E091BA
:10047400BC00E078E564E093BC000C948B04249702
:10048400F0D21A2F2A853B850C854D855E85F19B1C
:1004940058C0EF85EE0FE09303024093040250939B
:1004A4000502E0E0E09300020093060220930702B5
:1004B40030930802E093010210930902E6E0E0930E
:1004C40002027894003069F0042E052AD1F110302C
:1004D40021F000240216030609F001C032C0F09A8C
:1004E4000BC0103031F1022E032A59F1E0910302BE
:1004F400E160E0930302F098F198E091BC00EF70A2
:10050400E06AE093BC00E0E2F1EA67E070E084D2E4
:10051400F1990FC0EE81FF8168857985319760403C
:1005240070407AD229F4E5E0E0930202F19A09C01E
:10053400EFCFA0910202E0E0EA17E1E009F0EE2734
:1005440001C0E0E095D2609608950A921A92FA9258
:100554006A937A938A939A93AA93BA93EA93FA93AF
:10056400EFB7EA935A934A933A932A931A930A93C6
:1005740010910102009100023091060220910202C2
:10058400E12FA0910702B0910802F0E0EA0FFB1FEF
:10059400AF01E091B900E87FE83011F420E002C037
:1005A400E03119F4E091030210C0E83111F0E832AF
:1005B40041F5031798F4E02F0F5FA0910402B09166
:1005C4000502F0E0AE0FBF1FEC91E093BB00E09199
:1005D400BC00EF70E068E093BC0012C0E091090237
:1005E4001E1768F4E0910302E160E0930302F098BF
:1005F400E091BC00EF70E06AE093BC000DC138C02C
:100604000BC1E03531F4E091BB00DA01EC931F5FDC
:1006140002C0E03489F4E0910902E1501E1728F089
:10062400E091BC00EF70E06804C0E091BC00EF70A2
:10063400E06CE093BC00F0C0E83531F4E091BB001D
:10064400DA01EC931F5F02C0E03209F402C0E03328
:1006540009F402C0E83469F4203051F4F09B03C07B
:10066400031728F005C0E09109021E1708F424E0DE
:10067400CCC0E83331F422E0E091BC00EF70E068D4
:10068400C8C0E83611F0E83711F422E005C0E036BE
:1006940011F0E037A1F420E010E0F098E0910A02B4
:1006A400E03031F421E0E091BC00EF70E06804C078
:1006B400E091BC00EF70E06CE093BC00ADC0E038AA
:1006C40011F0E03939F5F09B02C021E09EC0E091C1
:1006D400BB00DA01EC931F5FE0910A021E17C0F41D
:1006E400E0910B02F0910C02309711F426E08DC0DA
:1006F400A0E0E0910B02F0910C020995E03039F092
:10070400E091BC00EF70E06CE093BC0085C001C0D8
:10071400F09A02C0E83809F402C0E83939F4E091EB
:10072400BC00EF70E068E093BC0076C0E03AB1F43E
:10073400E091BC00EF70E06CE093BC00F19AE091B2
:100744000B02F0910C02309739F0A1E0E0910B021A
:10075400F0910C02099501C026E05EC0E03B11F463
:1007640022E002C0E83AB1F4E0910D02F0910E02E9
:10077400309759F0A0E0E0910D02F0910E02099536
:100784003E2FE03011F020E002C026E03EC000E041
:10079400F09802C0E83BF9F4F09B02C021E035C0B8
:1007A400E02F0F5FA0910402B0910502F0E0AE0FBC
:1007B400BF1FEC91E093BB00031728F4E091BC0049
:1007C400EF70E06C05C0F09AE091BC00EF70E06857
:1007D400E093BC0021C0E03C11F0E83C99F4E091C6
:1007E400BC00EF70E06CE093BC00E0910D02F0916E
:1007F4000E02309731F0A1E0E0910D02F0910E026B
:10080400099509C0E03041F423E0E091BC00EF70A9
:10081400E06DE093BC00F19A109301020093000292
:10082400209302023093060209911991299139917A
:1008340049915991E991EFBFF991E991B991A99140
:100844009991899179916991F990199009901895E4
:10085400E8D0A0911402ECD04EC0E3D0E095A09172
:100864001402EA23EAD047C01A931A2FE091130224
:10087400EA93E0911402EF70AE2FE12FE07FD8D01D
:10088400A4E0E6DFA4E036C0AA93A881EDDFE88106
:10089400E295E883A881E8DF85E88A95F1F7219657
:1008A4000895CFD0E12FF0E0E15FFD4FE081E00F4C
:1008B400AE2FEADF402E312E55C0A2E0C7D0ACE007
:1008C400E3DFA1E0C3D0E0E03E2E4E2E08951A935C
:1008D4001A2F1A3011F0461438F0E0E0EA933394FA
:1008E400A32DDFDF1A3039F04394A1E0B1DFA12F4B
:1008F400CBDFA1E0B2DF19910895B5D09D01D901F4
:100904002F5F3F4FEC911E2FE03019F0A12FDFDF56
:10091400F6CFB0D02496089594D000931302E091BA
:100924001302EA93E8E089D0612EE12FE058E093C6
:100934001102E12FE054E0931202A4E1B0E006D1E9
:1009440089D088D087D0A0E28FDF88EC90E001972F
:10095400F1F7A8E299DFA4E097DFA5E895DFA6E028
:1009640093DFABDF1981088123960895AA93E98167
:10097400EA93FE013196FA93EA93E1E0EA93E0E028
:10098400F0E0FA93EA93A0E07ADD22960895E883F2
:10099400E064E8830895E0937C00E3E8E0937A0060
:1009A4000895E883E460E8830895EBB1EA83E12FD6
:1009B400E1700895E029EA83EBB90895E5B1EA838B
:1009C400E12FE1700895E029EA83E5B90895EB8900
:1009D400FC896D897E890895EB8FFC8F6D8F7E8FE6
:1009E4000895EF8FF8A369A37AA30895AB8DBC8D06
:1009F4008D8D9E8DEAE0F0E060E070E00895E98975
:100A0400F0E0DE010895AF8DB8A189A19AA1EAE0D2
:100A1400F0E060E070E00895EE83FF8368877987F3
:100A240008951A931A2FE0911302EA93E12F08957F
:100A3400EA2BE0931402AE2F99CFE0931402AE2F69
:100A440095CF1A930A931A2F0A8108951DDFA3E004
:100A5400B0E07CC0A0E308DF88EC90E00197F1F7F8
:100A640008955A934A933A932A931A930A930895AA
:100A74005D814C813B812A81198108810895AF935E
:100A8400BF93DB01AC0FBD1F05900D928A95E1F772
:100A9400BF91AF9108957A9F702D6B9F700DF89F51
:100AA400700DE99F700D6A9F602D710DFB9F600DA5
:100AB400711DE89F600D711D8827FA9FF02D610D4F
:100AC400781FEB9FF00D611D781FEA9FE02DF10D5B
:100AD400681F781F08950024112490E1AA0FBB1FFA
:100AE400001C111C0E1A1F0A18F40E0E1F1E01C042
:100AF400A1609A9599F7FD01D00108953F934F9312
:100B04005F9300241124A00130E2AA0FBB1F881FA9
:100B1400991F001C111C441F551F0E1A1F0A460B57
:100B2400570B28F40E0E1F1E461F571F01C0A1604D
:100B34003A9559F7FD01BC01D001CA015F914F916B
:100B44003F910895DBDFFD01BC010895109639F053
:100B5400A89580ED97E00197F1F71197C9F70895EB
:00000001FF
