:040000000C945D00FF
:100004000C9400000C9400000C9400000C9400006C
:100014000C9400000C9400000C9401010C9400005A
:100024000C9400000C9400000C9400000C9400004C
:100034000C9400000C9400000C9400000C9400003C
:100044000C9400000C9400000C9400000C9400002C
:100054000C9400000C9400000C9400000C9400001C
:100064000C9400000C942C020C9400000C940000DE
:100074000C9400000C9400001027E80364000A00AC
:10008400010000100001100001000000070080C002
:1000940001002D4E414E00494E460000010004006F
:1000A4008E0001000202900002000F029200010083
:1000B400150294000000F894EE27EFBBF1E0F5BFC1
:1000C400E5BF8DE0A2E0BB27ED938A95E9F780E0D8
:1000D40094E0A0E0B1E0ED930197E9F7E0EAF0E005
:1000E40085919591009761F0A591B5910590159032
:1000F400BF01F00105900D920197E1F7FB01F0CFEC
:10010400E0E0EEBBEFEFEDBFE4E0EEBFC0E0D2E035
:100114000C9433012197E0917C00E883E0E087D3DD
:100124008AD30C94D6032197E0E0E1B9EFEFE09392
:100134007E00EAB186D3EF7D7AD3EF77E883EAB91C
:10014400EBB17FD3E062E883EBB9E4B170D3E0684C
:10015400E883E4B9E5B16BD3E068E883E5B9DADFB5
:10016400E0916800E860E0936800E0917300E06269
:10017400E09373000C94D603AA932197EA81F0E0EC
:10018400309741F464D3EE0FEE0F0E2EE881EB7F2F
:1001940063D32BC0E130A0E0FA0749F458D3EE0F43
:1001A400EE0FEE0F0E2EE881E77F56D31EC0E3302C
:1001B400A0E0FA0771F454D358D35FD3EBB1E883CA
:1001C400E981EE23E1E009F0EE27E1704ED344D358
:1001D4000CC0E430A0E0FA0741F442D3E795E0E034
:1001E400E7950E2EE881EF7748D30C94BF01A4E67F
:1001F400B0E098D0E7E2EA93A0E1E2D208950A924F
:100204001A92FA926A937A938A939A93AA93BA93D4
:10021400EA93FA93EFB7EA93E9B1F0E0F595E7953D
:1002240059D3E17081F4E1E0E41521F4E3E0EA93C9
:10023400A0E003C0E3E0EA93A1E09EDFE1E04E2604
:10024400ACEBB2E063D3E991EFBFF991E991B991D5
:10025400A9919991899179916991F990199009904D
:100264001895E0E8E0936100E0E0E0936100E1B913
:10027400E2B9E4B9E5B9E7B9E8B9EAB9EBB9E4BD7B
:10028400E5BDE6BDE7BDE8BDE0938000E0938100F5
:10029400E0938500E0938400E0938700E093860078
:1002A400E0938900E0938800E0938B00E0938A0058
:1002B400E093B600E093B000E093B100E093B200A5
:1002C400E093B300E093B400E0936E00E0936F001A
:1002D400E0937000E0936900EDBBE0936800E09365
:1002E400C100E093C900E0E8E0BFE0E0E0937F00F4
:1002F400E0937E00A0D2E0E0E0937B00ECBD789434
:1003040001D0FFCFDDD200E010E020E030E00BDFD1
:10031400E3E0EA93A0E030DFE1E0EA93A0E02CDF41
:1003240066DFFFCFBA93AA931A93F19AE7E0E093BA
:100334000202E0E0E0930B02E0930C02E0930D0272
:10034400E0930E0241984098E093BC00E091B9001C
:10035400EC7FE093B900E981FA81A0EABFE0C3D25F
:100364001E2F183008F018501093B800E091BC000C
:10037400E078E564E093BC00188123960895AA937D
:100384002497F19B64C0EA85EE0FE0930302E885AD
:10039400F985E0930402F0930502E0E0E0930002A3
:1003A400EF81E0930602ED81FE81E0930702F09372
:1003B4000802E0E0E0930102EC81E0930902E6E048
:1003C400E09302027894EF81E03079F0E885F985D2
:1003D4003097E9F1EC81E03021F0AD81BE811097D6
:1003E40009F001C034C0F09A0DC0EC81E03039F15D
:1003F400ED81FE81309759F1E0910302E160E093D1
:100404000302F098F198E091BC00EF70E06AE09389
:10041400BC00E0E2F1EA67E070E033D2F1990FC08A
:10042400E881F9816A817B8131976040704029D2EB
:1004340029F4E5E0E0930202F19A09C0EFCFA0911C
:100444000202E0E0EA17E1E009F0EE2701C0E0E093
:100454002B9608950A921A92FA926A937A938A933F
:100464009A93AA93BA93EA93FA93EFB7EA935A93B7
:100474004A933A932A931A930A9310910102009192
:1004840000023091060220910202E12FA09107029E
:10049400B0910802F0E0EA0FFB1FAF01E091B90050
:1004A400E87FE83011F420E002C0E03119F4E09173
:1004B400030210C0E83111F0E83241F5031798F453
:1004C400E02F0F5FA0910402B0910502F0E0AE0F9F
:1004D400BF1FEC91E093BB00E091BC00EF70E068BB
:1004E400E093BC0012C0E09109021E1768F4E09189
:1004F4000302E160E0930302F098E091BC00EF7026
:10050400E06AE093BC000DC138C00BC1E03531F4A2
:10051400E091BB00DA01EC931F5F02C0E03489F480
:10052400E0910902E1501E1728F0E091BC00EF7041
:10053400E06804C0E091BC00EF70E06CE093BC00A4
:10054400F0C0E83531F4E091BB00DA01EC931F5FB1
:1005540002C0E03209F402C0E03309F402C0E83416
:1005640069F4203051F4F09B03C0031728F005C050
:10057400E09109021E1708F424E0CCC0E83331F4FA
:1005840022E0E091BC00EF70E068C8C0E83611F0EA
:10059400E83711F422E005C0E03611F0E037A1F4A9
:1005A40020E010E0F098E0910A02E03031F421E01C
:1005B400E091BC00EF70E06804C0E091BC00EF7013
:1005C400E06CE093BC00ADC0E03811F0E03939F5DF
:1005D400F09B02C021E09EC0E091BB00DA01EC93E5
:1005E4001F5FE0910A021E17C0F4E0910B02F09124
:1005F4000C02309711F426E08DC0A0E0E0910B02CC
:10060400F0910C020995E03039F0E091BC00EF70F4
:10061400E06CE093BC0085C001C0F09A02C0E838E9
:1006240009F402C0E83939F4E091BC00EF70E068E5
:10063400E093BC0076C0E03AB1F4E091BC00EF7006
:10064400E06CE093BC00F19AE0910B02F0910C0293
:10065400309739F0A1E0E0910B02F0910C0209957A
:1006640001C026E05EC0E03B11F422E002C0E83A9B
:10067400B1F4E0910D02F0910E02309759F0A0E030
:10068400E0910D02F0910E0209953E2FE03011F039
:1006940020E002C026E03EC000E0F09802C0E83B43
:1006A400F9F4F09B02C021E035C0E02F0F5FA09168
:1006B4000402B0910502F0E0AE0FBF1FEC91E0938D
:1006C400BB00031728F4E091BC00EF70E06C05C098
:1006D400F09AE091BC00EF70E068E093BC0021C0A8
:1006E400E03C11F0E83C99F4E091BC00EF70E06C60
:1006F400E093BC00E0910D02F0910E02309731F0CE
:10070400A1E0E0910D02F0910E02099509C0E030DC
:1007140041F423E0E091BC00EF70E06DE093BC0095
:10072400F19A109301020093000220930202309385
:100734000602099119912991399149915991E991A7
:10074400EFBFF991E991B991A99199918991799121
:100754006991F99019900990189598D0A091140274
:100764009BD022C093D0E095A0911402EA2399D0A3
:100774001BC0AA93E0911302EA93E0911402EF7074
:10078400AE2FE981E07F88D0A4E0E7DFA4E0EADFD0
:100794000BC0AA93A881EDDFE881E295E883A881E4
:1007A400E8DF85E88A95F1F721960895A2E07DD0E7
:1007B400ACE0EFDFA1E079D0E0E06E2E3E2E0895AC
:1007C400AA93E981E0931302EA93E8E06AD058809F
:1007D400E881E058E0931102E881E054E0931202CA
:1007E400A4E1B0E093D065D064D063D0A0E2C1DFCF
:1007F40088EC90E00197F1F7A8E2CBDFA4E0C9DF31
:10080400A5E8C7DFA6E0C5DFD1DF0FC0AA93E98161
:10081400EA93FE013196FA93EA93E1E0EA93E0E089
:10082400F0E0FA93EA93A0E0AADD22960895E88323
:10083400E064E8830895E0937C00E3E8E0937A00C1
:100844000895E883E460E883E860E8830895EBB101
:10085400E883E981E1700895E029E883EBB908951C
:10086400E5B1E883E981E1700895E295E07FEE0F58
:10087400EE0F0E2EE881EF7B0895E029E883E5B9B9
:100884000895E883F9836A837B830895AA93E091AA
:100894001302EA93E9810895EA2BE0931402AE2F40
:1008A400B5CFE0931402AE2FB1CF73DFA3E0B0E075
:1008B4002DC0A0E35EDF88EC90E00197F1F7089586
:1008C4003A932A931A930A9308953B812A811981B2
:1008D40008810895F595E795F595E795F595E795DC
:1008E400F595E79508950024112490E1AA0FBB1F04
:1008F400001C111C0E1A1F0A18F40E0E1F1E01C034
:10090400A1609A9599F7FD01D0010895109639F0E8
:10091400A89580ED97E00197F1F71197C9F708952D
:00000001FF
