:0E0000000C9450000C9400000C9400000C9422
:10000E0000000C9400000C9400000C9400000C9462
:10001E0000000C9400000C9400000C9400000C9452
:10002E0000000C9400000C9400000C9400000C9442
:10003E0000000C9400000C9400000C9400000C9432
:10004E0000000C9400000C9400000C9400000C9422
:10005E0000000C9400000C9400000C94C5010C944C
:10006E0000000C9400000C9400000C94000010276B
:10007E00E80364000A0001000010000110000100F6
:10008E00070080C0010002028E0002000F029000E5
:10009E000000F894EE27EFBBF1E0F5BFE5BF8DE071
:1000AE00A2E0BB27ED938A95E9F780E094E0A0E00B
:1000BE00B1E0ED930197E9F7E2E9F0E085919591D2
:1000CE00009761F0A591B59105901590BF01F001D3
:1000DE0005900D920197E1F7FB01F0CFE0E0EEBB4A
:1000EE00EFEFEDBFE4E0EEBFC0E0D2E00C94D20043
:1000FE002197EAB139D3E860E883E061E883E062F2
:10010E00E883EAB9EBB130D3E460E883EBB9E4B14C
:10011E002FD3E4B9E5B12CD3E5B90C947103219733
:10012E001A930A931A2F0B81E02FF0E0309741F4C7
:10013E0025D3EE0FEE0F0E2EEA81EB7F24D327C0D0
:10014E00E130A0E0FA0749F419D3EE0FEE0FEE0FEF
:10015E000E2EEA81E77F17D31AC0E230A0E0FA072D
:10016E0051F415D3E295E07FEE0FEE0F0E2EEA81DD
:10017E00EF7B12D30CC0E330A0E0FA0741F407D3B3
:10018E00E795E0E0E7950E2EEA81EF7705D319812A
:10019E0008810C945D01E0E8E0936100E0E0E093FB
:1001AE006100E1B9E2B9E4B9E5B9E7B9E8B9EAB98C
:1001BE00EBB9E4BDE5BDE6BDE7BDE8BDE09380006B
:1001CE00E0938100E0938500E0938400E093870044
:1001DE00E0938600E0938900E0938800E0938B0023
:1001EE00E0938A00E093B600E093B000E093B10094
:1001FE00E093B200E093B300E093B400E0936E009E
:10020E00E0936F00E0937000E0936900EDBBE09324
:10021E006800E093C100E093C900E0E8E0BFE0E0D1
:10022E00E0937F00E0937E00E0937C00E3E8E093B0
:10023E007A00E0E0E0937B00ECBDA4E6B0E00DD0E8
:10024E007894E7E2EA93A0E151D201D0FFCF50DFDC
:10025E00E2E0A6D2E1E0A4D2FFCFC9D29D01F19A8D
:10026E00E7E0E0930202E0E0E0930B02E0930C0281
:10027E00E0930D02E0930E0241984098E093BC008B
:10028E00E091B900EC7FE093B900F901A0EABFE07C
:10029E00BAD21E2F183008F018501093B800E09103
:1002AE00BC00E078E564E093BC00A8D224960895E3
:1002BE0024979BD21A2F2A853B850C854D855E850A
:1002CE00F19B58C0EF85EE0FE093030240930402BA
:1002DE0050930502E0E0E0930002009306022093A3
:1002EE00070230930802E093010210930902E6E040
:1002FE00E09302027894003069F0042E052AD1F1C1
:10030E00103021F000240216030609F001C032C09D
:10031E00F09A0BC0103031F1022E032A59F1E09100
:10032E000302E160E0930302F098F198E091BC00C3
:10033E00EF70E06AE093BC00E0E2F1EA67E070E0A3
:10034E0034D2F1990FC0EE81FF816885798531979E
:10035E00604070402AD229F4E5E0E0930202F19A5F
:10036E0009C0EFCFA0910202E0E0EA17E1E009F048
:10037E00EE2701C0E0E040D2609608950A921A92EC
:10038E00FA926A937A938A939A93AA93BA93EA9378
:10039E00FA93EFB7EA935A934A933A932A931A939E
:1003AE000A931091010200910002309106022091F1
:1003BE000202E12FA0910702B0910802F0E0EA0FCD
:1003CE00FB1FAF01E091B900E87FE83011F420E0A7
:1003DE0002C0E03119F4E091030210C0E83111F0CF
:1003EE00E83241F5031798F4E02F0F5FA091040255
:1003FE00B0910502F0E0AE0FBF1FEC91E093BB0091
:10040E00E091BC00EF70E068E093BC0012C0E09198
:10041E0009021E1768F4E0910302E160E093030203
:10042E00F098E091BC00EF70E06AE093BC000DC163
:10043E0038C00BC1E03531F4E091BB00DA01EC932A
:10044E001F5F02C0E03489F4E0910902E1501E17EB
:10045E0028F0E091BC00EF70E06804C0E091BC00B1
:10046E00EF70E06CE093BC00F0C0E83531F4E09141
:10047E00BB00DA01EC931F5F02C0E03209F402C048
:10048E00E03309F402C0E83469F4203051F4F09BF3
:10049E0003C0031728F005C0E09109021E1708F4E7
:1004AE0024E0CCC0E83331F422E0E091BC00EF70E0
:1004BE00E068C8C0E83611F0E83711F422E005C054
:1004CE00E03611F0E037A1F420E010E0F098E09172
:1004DE000A02E03031F421E0E091BC00EF70E068F8
:1004EE0004C0E091BC00EF70E06CE093BC00ADC0C6
:1004FE00E03811F0E03939F5F09B02C021E09EC0E2
:10050E00E091BB00DA01EC931F5FE0910A021E1727
:10051E00C0F4E0910B02F0910C02309711F426E03A
:10052E008DC0A0E0E0910B02F0910C020995E03035
:10053E0039F0E091BC00EF70E06CE093BC0085C038
:10054E0001C0F09A02C0E83809F402C0E83939F463
:10055E00E091BC00EF70E068E093BC0076C0E03A3A
:10056E00B1F4E091BC00EF70E06CE093BC00F19A46
:10057E00E0910B02F0910C02309739F0A1E0E0917E
:10058E000B02F0910C02099501C026E05EC0E03B23
:10059E0011F422E002C0E83AB1F4E0910D02F091BC
:1005AE000E02309759F0A0E0E0910D02F0910E028C
:1005BE0009953E2FE03011F020E002C026E03EC04B
:1005CE0000E0F09802C0E83BF9F4F09B02C021E095
:1005DE0035C0E02F0F5FA0910402B0910502F0E04C
:1005EE00AE0FBF1FEC91E093BB00031728F4E09110
:1005FE00BC00EF70E06C05C0F09AE091BC00EF70AB
:10060E00E068E093BC0021C0E03C11F0E83C99F4B6
:10061E00E091BC00EF70E06CE093BC00E0910D0245
:10062E00F0910E02309731F0A1E0E0910D02F091C1
:10063E000E02099509C0E03041F423E0E091BC00C0
:10064E00EF70E06DE093BC00F19A109301020093FD
:10065E00000220930202309306020991199129910A
:10066E00399149915991E991EFBFF991E991B99178
:10067E00A9919991899179916991F990199009901F
:10068E00189598D0A09114029CD017C093D0E095E5
:10069E00A0911402EA239AD010C01A931A2FE09157
:1006AE001302EA93E0911402EF70AE2FE12FE07F78
:1006BE0088D0A4E0E6DFA4E0E9DF19910895AA93BB
:1006CE00A881EBDFE881E295E883A881E6DF85E883
:1006DE008A95F1F721960895A2E07CD0ACE0EFDF89
:1006EE00A1E078D0E0E03E2E4E2E08951A930A93A4
:1006FE001A2F0A8100931302E0911302EA93E8E0A5
:10070E0065D0612EE12FE058E0931102E12FE05405
:10071E00E0931202A4E1B0E089D060D05FD05ED049
:10072E00A0E2BBDF88EC90E00197F1F7A8E2C7DF0B
:10073E00A4E0C5DFA5E8C3DFA6E0C1DFCDDF1981E8
:10074E00088123960895AA93E981EA93FE013196D2
:10075E00FA93EA93E1E0EA93E0E0F0E0FA93EA93A9
:10076E00A0E0A6DD22960895E883E460E88308956C
:10077E00E883E064E883E068E8830895EBB1EA83F8
:10078E00E12FE1700895E029EA83EBB90895E5B110
:10079E00EA83E12FE1700895E029EA83E5B908952F
:1007AE00EA93E0E0F0E0AE2FBACCEE83FF836887E9
:1007BE00798708951A931A2FE0911302EA93E12F85
:1007CE000895EA2BE0931402AE2FBDCFE0931402EE
:1007DE00AE2FB9CF74DFA3E0B0E028C0A0E35DDF99
:1007EE0088EC90E00197F1F708955A934A933A9363
:1007FE002A931A930A9308955D814C813B812A8135
:10080E001981088108950024112490E1AA0FBB1FBD
:10081E00001C111C0E1A1F0A18F40E0E1F1E01C00A
:10082E00A1609A9599F7FD01D0010895109639F0BF
:10083E00A89580ED97E00197F1F71197C9F7089504
:00000001FF
