:020000000C945E
:1000020067000C9400000C9400000C9400000C9407
:1000120000000C9400000C9422010C9439010C9401
:1000220000000C9400000C9400000C9400000C944E
:1000320000000C9400000C9400000C9400000C943E
:1000420000000C9400000C9400000C9400000C942E
:1000520000000C9400000C9400000C9400000C941E
:1000620000000C9400000C9454020C9400000C94B8
:1000720000000C9400000C9400001027E8036400B8
:100082000A00010000100001100001000000506F82
:10009200776572204F4E00506F776572204F46464B
:1000A2000000070080C001002D4E414E00494E461F
:1000B2000000020003008E0001000202A400020000
:1000C2000F02A60001001502A8000000F894EE2716
:1000D200EFBBF1E0F5BFE5BF8DE0A2E0BB27ED93FA
:1000E2008A95E9F780E094E0A0E0B1E0ED93019712
:1000F200E9F7E4EBF0E085919591009761F0A59125
:10010200B59105901590BF01F00105900D920197F0
:10011200E1F7FB01F0CFE0E0EEBBEFEFEDBFE4E093
:10012200EEBFC0E0D2E00C945E012197E0917C002A
:10013200E883E0E03DD540D50C942A042197E0E025
:10014200E1B9EFEFE0937E00EAB13CD5EF7D30D527
:10015200EF77E883EAB9EBB135D5E062E883EBB932
:10016200E4B126D5E068E883E4B9E5B121D5E068D9
:10017200E883E5B9479AD9DFE0916800EC60E09343
:100182006800E0917300E062E0937300E0916D001B
:10019200E068E0936D000C942A04AA932197EA8107
:1001A200F0E0309741F414D5EE0FEE0F0E2EE881F9
:1001B200EB7F13D52BC0E130A0E0FA0749F408D554
:1001C200EE0FEE0FEE0F0E2EE881E77F06D51EC072
:1001D200E330A0E0FA0771F404D508D50FD5EBB1EE
:1001E200E883E981EE23E1E009F0EE27E170FED435
:1001F200F4D40CC0E430A0E0FA0741F4F2D4E7955D
:10020200E0E0E7950E2EE881EF77F8D40C94B00584
:10021200A4E6B0E0B0D0E7E2EA93A0E11CD30895EF
:1002220022973AD5442019F0E0E9F0E002C0E9E96A
:10023200F0E0FA93EA9380E094D4229634D528969B
:100242000895E0D4E6B1F0E03BD538D5E17079F419
:10025200E1E03E26E31521F4E4E0EA93A0E003C0E6
:10026200E4E0EA93A1E099DFACEBB2E047D517C036
:10027200C9D4E9B1F0E0F595E79520D5E17079F4BC
:10028200E1E04E26E41521F4E3E0EA93A0E003C0A6
:10029200E3E0EA93A1E081DFACEBB2E02FD5E99194
:1002A200EFBFF991E991B991A991999189917991C8
:1002B2006991F990199009901895E0E8E09361002E
:1002C200E0E0E0936100E1B9E2B9E4B9E5B9E7B988
:1002D200E8B9EAB9EBB9E4BDE5BDE6BDE7BDE8BD05
:1002E200E0938000E0938100E0938500E093840036
:1002F200E0938700E0938600E0938900E093880012
:10030200E0938B00E0938A00E093B600E093B000A4
:10031200E093B100E093B200E093B300E093B40045
:10032200E0936E00E0936F00E0937000E093690049
:10033200EDBBE0936800E093C100E093C900E0E800
:10034200E0BFE0E0E0937F00E0937E0035D4E0E0A0
:10035200E0937B00ECBD789401D0FFCF9FD400E006
:1003620010E020E030E0EADE53DF5ADFA4EFB1E034
:10037200C5D450D2FACFBA93AA931A93F19AE7E06E
:10038200E0930202E0E0E0930B02E0930C02E093C0
:100392000D02E0930E0241984098E093BC00E09178
:1003A200B900EC7FE093B900E981FA81A0EABFE0ED
:1003B2008ED41E2F183008F018501093B800E09118
:1003C200BC00E078E564E093BC0018810C94B005B1
:1003D200AA932497F19B64C0EA85EE0FE09303028F
:1003E200E885F985E0930402F0930502E0E0E093EA
:1003F2000002EF81E0930602ED81FE81E0930702A5
:10040200F0930802E0E0E0930102EC81E09309023C
:10041200E6E0E09302027894EF81E03079F0E8853B
:10042200F9853097E9F1EC81E03021F0AD81BE81B0
:10043200109709F001C034C0F09A0DC0EC81E03091
:1004420039F1ED81FE81309759F1E0910302E160CB
:10045200E0930302F098F198E091BC00EF70E06A3B
:10046200E093BC00E0E2F1EA67E070E0D9D3F199F1
:100472000FC0E881F9816A817B81319760407040C9
:10048200CFD329F4E5E0E0930202F19A09C0EFCF5D
:10049200A0910202E0E0EA17E1E009F0EE2701C0D4
:1004A200E0E02B9608950A921A92FA926A937A934E
:1004B2008A939A93AA93BA93EA93FA93EFB7EA9339
:1004C2005A934A933A932A931A930A9310910102E8
:1004D200009100023091060220910202E12FA091C8
:1004E2000702B0910802F0E0EA0FFB1FAF01E091B2
:1004F200B900E87FE83011F420E002C0E03119F4DD
:10050200E091030210C0E83111F0E83241F503171F
:1005120098F4E02F0F5FA0910402B0910502F0E081
:10052200AE0FBF1FEC91E093BB00E091BC00EF70F7
:10053200E068E093BC0012C0E09109021E1768F463
:10054200E0910302E160E0930302F098E091BC00C5
:10055200EF70E06AE093BC000DC138C00BC1E0351A
:1005620031F4E091BB00DA01EC931F5F02C0E0348A
:1005720089F4E0910902E1501E1728F0E091BC00D5
:10058200EF70E06804C0E091BC00EF70E06CE093B3
:10059200BC00F0C0E83531F4E091BB00DA01EC9325
:1005A2001F5F02C0E03209F402C0E03309F402C066
:1005B200E83469F4203051F4F09B03C0031728F0AB
:1005C20005C0E09109021E1708F424E0CCC0E8330C
:1005D20031F422E0E091BC00EF70E068C8C0E83678
:1005E20011F0E83711F422E005C0E03611F0E037EF
:1005F200A1F420E010E0F098E0910A02E03031F43A
:1006020021E0E091BC00EF70E06804C0E091BC0022
:10061200EF70E06CE093BC00ADC0E03811F0E0395F
:1006220039F5F09B02C021E09EC0E091BB00DA01E7
:10063200EC931F5FE0910A021E17C0F4E0910B02D7
:10064200F0910C02309711F426E08DC0A0E0E09109
:100652000B02F0910C020995E03039F0E091BC00F8
:10066200EF70E06CE093BC0085C001C0F09A02C05C
:10067200E83809F402C0E83939F4E091BC00EF70BF
:10068200E068E093BC0076C0E03AB1F4E091BC00CF
:10069200EF70E06CE093BC00F19AE0910B02F091F4
:1006A2000C02309739F0A1E0E0910B02F0910C02BC
:1006B200099501C026E05EC0E03B11F422E002C0D1
:1006C200E83AB1F4E0910D02F0910E02309759F040
:1006D200A0E0E0910D02F0910E0209953E2FE0306C
:1006E20011F020E002C026E03EC000E0F09802C017
:1006F200E83BF9F4F09B02C021E035C0E02F0F5F28
:10070200A0910402B0910502F0E0AE0FBF1FEC9180
:10071200E093BB00031728F4E091BC00EF70E06C9B
:1007220005C0F09AE091BC00EF70E068E093BC0075
:1007320021C0E03C11F0E83C99F4E091BC00EF707C
:10074200E06CE093BC00E0910D02F0910E02309754
:1007520031F0A1E0E0910D02F0910E02099509C07D
:10076200E03041F423E0E091BC00EF70E06DE093F3
:10077200BC00F19A1093010200930002209302023E
:100782003093060209911991299139914991599110
:10079200E991EFBFF991E991B991A9919991899163
:1007A20079916991F9901990099018953ED2A0918A
:1007B200140241D24EC039D2E095A0911402EA232C
:1007C2003FD247C0AA93E0911302EA93E091140248
:1007D200EF70AE2FE981E07F2ED2A4E0E7DFA4E044
:1007E20037C0AA93A881EEDFE881E295E883A88169
:1007F200E9DF85E88A95F1F72CC0AA93E881F0E059
:10080200E15FFD4FE081A981AE0FEBDF6980588087
:100812000C947B04A2E018D2ACE0E3DFA1E014D296
:10082200E0E05E2E6E2E0895AA93A881AA3011F000
:10083200681440F0E0E0EA935394A52DDEDFA8812E
:10084200AA3039F06394A1E0B1DFA881CADFA1E048
:10085200B2DF21960895AA93E981E0931302EA9305
:10086200E8E0EED18880E881E058E0931102E88167
:10087200E054E0931202A4E1B0E040D2E9D1E8D121
:10088200E7D1A0E29FDF88EC90E00197F1F7A8E2C0
:10089200A8DFA4E0A6DFA5E8A4DFA6E0A2DFBADF16
:1008A2000C947B04BA93AA93A991B991EE27FF27DE
:1008B2006D91662311F03196FBCF0895BA93AA93F6
:1008C200AA27BB27E991F9910590002011F0119612
:1008D200FBCFFD010895AA93E981EA93FE013196C7
:1008E200FA93EA93E1E0EA93E0E0F0E0FA93EA9324
:1008F200A0E06EDD22960895BA93AA932697CCD1F2
:1009020010E0AC85BD85E0E0F0E0ED93FC93EA8970
:10091200FB893196EA8BFB8B3197E4912E2FE030E5
:1009220009F40BC1E12FE03031F4253211F411E06A
:1009320001C095D101C1E130A1F4253211F48FD16A
:10094200FAC012E040E000E02D3211F401E0F4C000
:100952002B3211F44BE2F0C0203211F440E2ECC031
:1009620002C0E23039F450E013E0203311F40068A1
:10097200E3C003C0E33009F0DFC0203310F02A33B4
:1009820008F007C0AAE05A9F502DE22FE0535E0FF5
:10099200D3C0E22FE33639F469D1E889F989A48119
:1009A200AA936AD1C8C0E33729F460D16BD17ADF48
:1009B2001E2F07C0E03749F459D164D17FDF1E2FC3
:1009C200086002600F7730E03AC0E43611F0E93691
:1009D20011F4046002C0E53731F4ECE7F0E0EE8395
:1009E200FF8315E00CC0E83511F4086003C0E83756
:1009F20009F0A1C0E6E8F0E0EE83FF8314E002FF15
:100A020015C034D1A889B9891496ED91FD91EA8770
:100A1200FB87AB85AA2322F44DD1EA87FB874DE2FF
:100A2200403011F01F5F01C00B7F09C01FD1A889A0
:100A3200B9891496ED91FC911197EA87FB8700FD25
:100A420010C0151770F407FF08C002FF04C00B7F27
:100A5200242F115001C020E301C020E200D15150E7
:100A6200F0CF312F01FF16C0303099F003FF06C0DE
:100A7200EE81FF812591EE83FF8305C0AE81BF81A8
:100A82002D91AE83BF83EBD0503009F051503150DD
:100A9200EBCF48C020E3EE81FF812CD1E887F987B4
:100AA200EE81FF813296EE83FF83E885F985AA8580
:100AB200BB85AE17BF0750F02F5FA885B985EA85C1
:100AC200FB85EA1BFB0BEA87FB87EFCF2A3328F073
:100AD20003FF02C0295F01C0295D04FD19C0213353
:100AE20020F4A885B985119709F409C0531710F0AD
:100AF20000FF01C011C020E207FF0AC020E300612D
:100B020002FF06C00B7F4A93B7D0503009F0515014
:100B1200A6D0503009F051503150A885B9851297AE
:100B220008F0B8CF00FF07C0503029F05150E0E282
:100B3200EA93A2D0F9CF10E0EACEAC85BD85ED9163
:100B4200FD91B1D064960895BA93AA93AA816CDEFE
:100B5200A881B981ED91FD913196FE93EE93239692
:100B62000895FF92F82E26971A930A93DE0114969F
:100B72000024AF0DB01D8D01E0E0EC83ED83EE8328
:100B8200EF83DE0118960024AF0DB01DED91FD91AB
:100B9200FA93EA931A930A93E5EAF5E0FA93EA9351
:100BA200DE011896A9DE198108812896FF90089522
:100BB200E883E064E8830895E0937C00E3E8E0934F
:100BC2007A000895E883E460E883E860E8830895A2
:100BD200EBB1E883E981E1700895E029E883EBB99C
:100BE2000895E5B1E883E981E1700895E295E07F37
:100BF200EE0FEE0F0E2EE881EF7B0895E029E883D9
:100C0200E5B908950A921A92FA926A937A938A93AC
:100C12009A93AA93BA93EA93FA93EFB7EA93089551
:100C2200E883F9836A837B830895AA93E091130290
:100C3200EA93E9810895EA2BE0931402AE2F4BCE9A
:100C4200E0931402AE2F47CECCDDA3E0B0E056C055
:100C5200A0E3B8DD88EC90E00197F1F708952A93BC
:100C6200AD85BE85EF85F88909950895E889F989EA
:100C72003497E88BF98B0895AD85BE85EF85F889A9
:100C820009950895A889B9891496ED91FD91EE838D
:100C9200FF83AE81BF8108955A934A933A932A9370
:100CA2001A930A9308955D814C813B812A811981AF
:100CB20008810895F195E195F0400895F595E7953D
:100CC200F595E795F595E795F595E795089500244F
:100CD200112490E1AA0FBB1F001C111C0E1A1F0A3F
:100CE20018F40E0E1F1E01C0A1609A9599F7FD011E
:100CF200D00108950590F491E02D0895109639F0F1
:100D0200A89580ED97E00197F1F71197C9F708953B
:00000001FF
